{
  "contractName": "PropertyRegistry",
  "abi": [
    {
      "inputs": [],
      "stateMutability": "nonpayable",
      "type": "constructor"
    },
    {
      "anonymous": false,
      "inputs": [
        {
          "indexed": false,
          "internalType": "uint256",
          "name": "id",
          "type": "uint256"
        },
        {
          "indexed": false,
          "internalType": "address",
          "name": "oldOwner",
          "type": "address"
        },
        {
          "indexed": false,
          "internalType": "address",
          "name": "newOwner",
          "type": "address"
        },
        {
          "indexed": false,
          "internalType": "string",
          "name": "newOwnerName",
          "type": "string"
        }
      ],
      "name": "OwnershipTransferred",
      "type": "event"
    },
    {
      "anonymous": false,
      "inputs": [
        {
          "indexed": false,
          "internalType": "uint256",
          "name": "id",
          "type": "uint256"
        },
        {
          "indexed": false,
          "internalType": "address",
          "name": "owner",
          "type": "address"
        },
        {
          "indexed": false,
          "internalType": "string",
          "name": "propertyAddress",
          "type": "string"
        },
        {
          "indexed": false,
          "internalType": "string",
          "name": "ownerName",
          "type": "string"
        }
      ],
      "name": "PropertyRegistered",
      "type": "event"
    },
    {
      "inputs": [
        {
          "internalType": "string",
          "name": "propertyAddress",
          "type": "string"
        },
        {
          "internalType": "string",
          "name": "ownerName",
          "type": "string"
        }
      ],
      "name": "registerProperty",
      "outputs": [],
      "stateMutability": "nonpayable",
      "type": "function"
    },
    {
      "inputs": [
        {
          "internalType": "uint256",
          "name": "propertyId",
          "type": "uint256"
        },
        {
          "internalType": "address",
          "name": "newOwner",
          "type": "address"
        },
        {
          "internalType": "string",
          "name": "newOwnerName",
          "type": "string"
        }
      ],
      "name": "transferOwnership",
      "outputs": [],
      "stateMutability": "nonpayable",
      "type": "function"
    },
    {
      "inputs": [
        {
          "internalType": "uint256",
          "name": "propertyId",
          "type": "uint256"
        }
      ],
      "name": "getProperty",
      "outputs": [
        {
          "internalType": "uint256",
          "name": "",
          "type": "uint256"
        },
        {
          "internalType": "address",
          "name": "",
          "type": "address"
        },
        {
          "internalType": "string",
          "name": "",
          "type": "string"
        },
        {
          "internalType": "string",
          "name": "",
          "type": "string"
        }
      ],
      "stateMutability": "view",
      "type": "function"
    }
  ],
  "bytecode": "0x608060405234801561001057600080fd5b506000600181905550610d23806100286000396000f3fe608060405234801561001057600080fd5b50600436106100415760003560e01c80631b0f8ea81461004657806332665ffb146100625780637162564114610095575b600080fd5b610060600480360381019061005b91906107d3565b6100b1565b005b61007c6004803603810190610077919061083f565b6101e7565b60405161008c9493929190610a58565b60405180910390f35b6100af60048036038101906100aa9190610868565b61045b565b005b600160008154809291906100c490610bd8565b9190505550604051806080016040528060015481526020013373ffffffffffffffffffffffffffffffffffffffff1681526020018381526020018281525060008060015481526020019081526020016000206000820151816000015560208201518160010160006101000a81548173ffffffffffffffffffffffffffffffffffffffff021916908373ffffffffffffffffffffffffffffffffffffffff160217905550604082015181600201908051906020019061018392919061069e565b5060608201518160030190805190602001906101a092919061069e565b509050507f31182f6909026c6beb17a5f7d86ce8dfd6c60aeb1d2df4ef2250e326b10a1ae66001543384846040516101db9493929190610a58565b60405180910390a15050565b600080606080600073ffffffffffffffffffffffffffffffffffffffff1660008087815260200190815260200160002060010160009054906101000a900473ffffffffffffffffffffffffffffffffffffffff1673ffffffffffffffffffffffffffffffffffffffff161415610292576040517f08c379a0000000000000000000000000000000000000000000000000000000008152600401610289906109ec565b60405180910390fd5b6000806000878152602001908152602001600020604051806080016040529081600082015481526020016001820160009054906101000a900473ffffffffffffffffffffffffffffffffffffffff1673ffffffffffffffffffffffffffffffffffffffff1673ffffffffffffffffffffffffffffffffffffffff16815260200160028201805461032190610ba6565b80601f016020809104026020016040519081016040528092919081815260200182805461034d90610ba6565b801561039a5780601f1061036f5761010080835404028352916020019161039a565b820191906000526020600020905b81548152906001019060200180831161037d57829003601f168201915b505050505081526020016003820180546103b390610ba6565b80601f01602080910402602001604051908101604052809291908181526020018280546103df90610ba6565b801561042c5780601f106104015761010080835404028352916020019161042c565b820191906000526020600020905b81548152906001019060200180831161040f57829003601f168201915b505050505081525050905080600001518160200151826040015183606001519450945094509450509193509193565b600073ffffffffffffffffffffffffffffffffffffffff1660008085815260200190815260200160002060010160009054906101000a900473ffffffffffffffffffffffffffffffffffffffff1673ffffffffffffffffffffffffffffffffffffffff161415610500576040517f08c379a00000000000000000000000000000000000000000000000000000000081526004016104f7906109ec565b60405180910390fd5b3373ffffffffffffffffffffffffffffffffffffffff1660008085815260200190815260200160002060010160009054906101000a900473ffffffffffffffffffffffffffffffffffffffff1673ffffffffffffffffffffffffffffffffffffffff16146105a3576040517f08c379a000000000000000000000000000000000000000000000000000000000815260040161059a906109cc565b60405180910390fd5b600080600085815260200190815260200160002060010160009054906101000a900473ffffffffffffffffffffffffffffffffffffffff1690508260008086815260200190815260200160002060010160006101000a81548173ffffffffffffffffffffffffffffffffffffffff021916908373ffffffffffffffffffffffffffffffffffffffff16021790555081600080868152602001908152602001600020600301908051906020019061065a92919061069e565b507fc6f76974206718b625c9faba8b5ae1931f1e7a6620c23458a74554aeffef1360848285856040516106909493929190610a0c565b60405180910390a150505050565b8280546106aa90610ba6565b90600052602060002090601f0160209004810192826106cc5760008555610713565b82601f106106e557805160ff1916838001178555610713565b82800160010185558215610713579182015b828111156107125782518255916020019190600101906106f7565b5b5090506107209190610724565b5090565b5b8082111561073d576000816000905550600101610725565b5090565b600061075461074f84610adc565b610aab565b90508281526020810184848401111561076c57600080fd5b610777848285610b64565b509392505050565b60008135905061078e81610cbf565b92915050565b600082601f8301126107a557600080fd5b81356107b5848260208601610741565b91505092915050565b6000813590506107cd81610cd6565b92915050565b600080604083850312156107e657600080fd5b600083013567ffffffffffffffff81111561080057600080fd5b61080c85828601610794565b925050602083013567ffffffffffffffff81111561082957600080fd5b61083585828601610794565b9150509250929050565b60006020828403121561085157600080fd5b600061085f848285016107be565b91505092915050565b60008060006060848603121561087d57600080fd5b600061088b868287016107be565b935050602061089c8682870161077f565b925050604084013567ffffffffffffffff8111156108b957600080fd5b6108c586828701610794565b9150509250925092565b6108d881610b28565b82525050565b60006108e982610b0c565b6108f38185610b17565b9350610903818560208601610b73565b61090c81610cae565b840191505092915050565b6000610924602e83610b17565b91507f4f6e6c79207468652070726f7065727479206f776e65722063616e207472616e60008301527f73666572206f776e6572736869700000000000000000000000000000000000006020830152604082019050919050565b600061098a601783610b17565b91507f50726f706572747920646f6573206e6f742065786973740000000000000000006000830152602082019050919050565b6109c681610b5a565b82525050565b600060208201905081810360008301526109e581610917565b9050919050565b60006020820190508181036000830152610a058161097d565b9050919050565b6000608082019050610a2160008301876109bd565b610a2e60208301866108cf565b610a3b60408301856108cf565b8181036060830152610a4d81846108de565b905095945050505050565b6000608082019050610a6d60008301876109bd565b610a7a60208301866108cf565b8181036040830152610a8c81856108de565b90508181036060830152610aa081846108de565b905095945050505050565b6000604051905081810181811067ffffffffffffffff82111715610ad257610ad1610c7f565b5b8060405250919050565b600067ffffffffffffffff821115610af757610af6610c7f565b5b601f19601f8301169050602081019050919050565b600081519050919050565b600082825260208201905092915050565b6000610b3382610b3a565b9050919050565b600073ffffffffffffffffffffffffffffffffffffffff82169050919050565b6000819050919050565b82818337600083830152505050565b60005b83811015610b91578082015181840152602081019050610b76565b83811115610ba0576000848401525b50505050565b60006002820490506001821680610bbe57607f821691505b60208210811415610bd257610bd1610c50565b5b50919050565b6000610be382610b5a565b91507fffffffffffffffffffffffffffffffffffffffffffffffffffffffffffffffff821415610c1657610c15610c21565b5b600182019050919050565b7f4e487b7100000000000000000000000000000000000000000000000000000000600052601160045260246000fd5b7f4e487b7100000000000000000000000000000000000000000000000000000000600052602260045260246000fd5b7f4e487b7100000000000000000000000000000000000000000000000000000000600052604160045260246000fd5b6000601f19601f8301169050919050565b610cc881610b28565b8114610cd357600080fd5b50565b610cdf81610b5a565b8114610cea57600080fd5b5056fea26469706673582212206c585790399e6557048c74263e767ebb7fa75584904ac2ac5e5ac52ba17c9faa64736f6c63430008000033",
  "immutableReferences": {},
  "source": "// SPDX-License-Identifier: MIT\r\npragma solidity ^0.8.0;\r\n\r\ncontract PropertyRegistry {\r\n    struct Property {\r\n        uint256 id;\r\n        address owner;\r\n        string propertyAddress;\r\n        string ownerName;\r\n    }\r\n\r\n    mapping(uint256 => Property) private properties;\r\n    uint256 private propertyCounter;\r\n\r\n    event PropertyRegistered(uint256 id, address owner, string propertyAddress, string ownerName);\r\n    event OwnershipTransferred(uint256 id, address oldOwner, address newOwner, string newOwnerName);\r\n\r\n    constructor() {\r\n        propertyCounter = 0;\r\n    }\r\n\r\n    function registerProperty(string memory propertyAddress, string memory ownerName) public {\r\n        propertyCounter++;\r\n        properties[propertyCounter] = Property(propertyCounter, msg.sender, propertyAddress, ownerName);\r\n        emit PropertyRegistered(propertyCounter, msg.sender, propertyAddress, ownerName);\r\n    }\r\n\r\n    function transferOwnership(uint256 propertyId, address newOwner, string memory newOwnerName) public {\r\n        require(properties[propertyId].owner != address(0), \"Property does not exist\");\r\n        require(properties[propertyId].owner == msg.sender, \"Only the property owner can transfer ownership\");\r\n        address oldOwner = properties[propertyId].owner;\r\n        properties[propertyId].owner = newOwner;\r\n        properties[propertyId].ownerName = newOwnerName;\r\n        emit OwnershipTransferred(propertyId, oldOwner, newOwner, newOwnerName);\r\n    }\r\n\r\n    function getProperty(uint256 propertyId) public view returns (uint256, address, string memory, string memory) {\r\n        require(properties[propertyId].owner != address(0), \"Property does not exist\");\r\n        Property memory property = properties[propertyId];\r\n        return (property.id, property.owner, property.propertyAddress, property.ownerName);\r\n    }\r\n}\r\n\r\n\r\n",
  "sourcePath": "C:\\Users\\Usuario\\Documents\\PropertyRegistry\\contracts\\PropertyRegistry.sol",
  "compiler": {
    "name": "solc",
    "version": "0.8.0+commit.c7dfd78e.Emscripten.clang"
  },
  "schemaVersion": "3.4.16",
  "updatedAt": "2024-06-14T05:11:18.905Z",
  "devdoc": {
    "kind": "dev",
    "methods": {},
    "version": 1
  },
  "userdoc": {
    "kind": "user",
    "methods": {},
    "version": 1
  }
}